{
  "address": "0xFdB402FfcffC48F9E9fdD73B8e0e024cF0Fc11fb",
  "abi": [
    {
      "inputs": [
        {
          "internalType": "contract IERC20",
          "name": "token1",
          "type": "address"
        },
        {
          "internalType": "contract IERC20",
          "name": "token2",
          "type": "address"
        },
        {
          "internalType": "string",
          "name": "name",
          "type": "string"
        },
        {
          "internalType": "string",
          "name": "symbol",
          "type": "string"
        },
        {
          "internalType": "address",
          "name": "poolOwner",
          "type": "address"
        }
      ],
      "name": "deploy",
      "outputs": [
        {
          "internalType": "contract Swap",
          "name": "pool",
          "type": "address"
        }
      ],
      "stateMutability": "nonpayable",
      "type": "function"
    }
  ],
  "transactionHash": "0xc8b7bbfe436a73b6d33eda4c22872ccf23803d8b5a297d3985a54ee17a62c197",
  "args": [],
  "numDeployments": 1,
  "solcInputHash": "9c17c5f61ed871b63a1cfd15c62c1de1",
  "bytecode": "0x608060405234801561001057600080fd5b50615aaa806100206000396000f3fe608060405234801561001057600080fd5b506004361061002b5760003560e01c8063b92440b014610030575b600080fd5b61004361003e366004610160565b61005f565b6040516001600160a01b03909116815260200160405180910390f35b6000878787878787336040516100749061010b565b610084979695949392919061022f565b604051809103906000f0801580156100a0573d6000803e3d6000fd5b5060405163f2fde38b60e01b81526001600160a01b0384811660048301529192509082169063f2fde38b90602401600060405180830381600087803b1580156100e857600080fd5b505af11580156100fc573d6000803e3d6000fd5b50505050979650505050505050565b6157d7806200029e83390190565b60008083601f84011261012a578182fd5b50813567ffffffffffffffff811115610141578182fd5b60208301915083602082850101111561015957600080fd5b9250929050565b600080600080600080600060a0888a03121561017a578283fd5b873561018581610285565b9650602088013561019581610285565b9550604088013567ffffffffffffffff808211156101b1578485fd5b6101bd8b838c01610119565b909750955060608a01359150808211156101d5578485fd5b506101e28a828b01610119565b90945092505060808801356101f681610285565b8091505092959891949750929550565b81835281816020850137506000828201602090810191909152601f909101601f19169091010190565b600060018060a01b03808a168352808916602084015260a0604084015261025a60a08401888a610206565b838103606085015261026d818789610206565b92505080841660808401525098975050505050505050565b6001600160a01b038116811461029a57600080fd5b5056fe60c06040523480156200001157600080fd5b50604051620057d7380380620057d7833981016040819052620000349162000540565b80838381600390805190602001906200004f929190620003f1565b50805162000065906004906020840190620003f1565b505050620000826200007c6200034060201b60201c565b62000344565b6001600655600780546001600160a01b0319166001600160a01b0383169081179091556040805163043759e560e31b815290516200012d92916321bacf28916004808301926020929190829003018186803b158015620000e157600080fd5b505afa158015620000f6573d6000803e3d6000fd5b505050506040513d601f19601f820116820180604052508101906200011c9190620005e9565b6200039660201b620029251760201c565b6008600001600001600d6101000a8154816001600160681b0302191690836001600160681b0316021790555062000197816001600160a01b031663b975d0bb6040518163ffffffff1660e01b815260040160206040518083038186803b158015620000e157600080fd5b600c600001600001600d6101000a8154816001600160681b0302191690836001600160681b0316021790555062000201816001600160a01b0316639386e8b26040518163ffffffff1660e01b815260040160206040518083038186803b158015620000e157600080fd5b601080546001600160681b0392909216600160681b02600160681b600160d01b0319909216919091179055508251620002735760405162461bcd60e51b815260206004820152600f60248201526e535741505f4e414d455f454d50545960881b60448201526064015b60405180910390fd5b6000825111620002ba5760405162461bcd60e51b8152602060048201526011602482015270535741505f53594d424f4c5f454d50545960781b60448201526064016200026a565b836001600160a01b0316856001600160a01b031614156200031e5760405162461bcd60e51b815260206004820152601460248201527f535741505f54574f5f544f4b454e535f53414d4500000000000000000000000060448201526064016200026a565b5050506001600160601b0319606092831b8116608052911b1660a0526200066e565b3390565b600580546001600160a01b038381166001600160a01b0319831681179093556040519116919082907f8be0079c531659141344cd1fd0a4f28419497f9722a3daafe3b4186f6b6457e090600090a35050565b6000600160681b8210620003ed5760405162461bcd60e51b815260206004820152601e60248201527f76616c756520646f6573206e6f742066697420696e203130342062697473000060448201526064016200026a565b5090565b828054620003ff9062000602565b90600052602060002090601f0160209004810192826200042357600085556200046e565b82601f106200043e57805160ff19168380011785556200046e565b828001600101855582156200046e579182015b828111156200046e57825182559160200191906001019062000451565b50620003ed9291505b80821115620003ed576000815560010162000477565b600082601f8301126200049e578081fd5b81516001600160401b0380821115620004bb57620004bb6200063f565b604051601f8301601f19908116603f01168101908282118183101715620004e657620004e66200063f565b8160405283815260209250868385880101111562000502578485fd5b8491505b8382101562000525578582018301518183018401529082019062000506565b838211156200053657848385830101525b9695505050505050565b600080600080600060a0868803121562000558578081fd5b8551620005658162000655565b6020870151909550620005788162000655565b60408701519094506001600160401b038082111562000595578283fd5b620005a389838a016200048d565b94506060880151915080821115620005b9578283fd5b50620005c8888289016200048d565b9250506080860151620005db8162000655565b809150509295509295909350565b600060208284031215620005fb578081fd5b5051919050565b600181811c908216806200061757607f821691505b602082108114156200063957634e487b7160e01b600052602260045260246000fd5b50919050565b634e487b7160e01b600052604160045260246000fd5b6001600160a01b03811681146200066b57600080fd5b50565b60805160601c60a05160601c6150db620006fc6000396000818161084e01528181610beb015281816112b7015281816113830152818161164201528181611fa3015281816127e401526134f901526000818161030501528181610bc601528181611280015281816113010152818161161d01528181611f41015281816127b401526134bc01526150db6000f3fe6080604052600436106102935760003560e01c806393028d831161015a578063cad07066116100c1578063e331d0391161007a578063e331d039146108c3578063e4b50cb8146108d6578063ee5d1859146108f6578063f2fde38b1461093c578063f3bf09bb1461095c578063f76d13b41461099757600080fd5b8063cad0706614610807578063ced72f8714610827578063d21220a71461083c578063d2fd9eba14610870578063d5bcb9b514610890578063dd62ed3e146108a357600080fd5b8063a9059cbb11610113578063a9059cbb146106b9578063aa6ca808146106d9578063ac9d6f95146106fb578063b1ec4c4014610766578063bd10cd80146107c7578063c515ee23146107e757600080fd5b806393028d831461061c578063936f0a151461063157806395d89b41146106515780639ab7fdd6146106665780639ea5ce0a14610686578063a457c2d71461069957600080fd5b8063487ca261116101fe57806370a08231116101b757806370a0823114610574578063715018a614610594578063728c769a146105a957806378e3214f146105be5780638da5cb5b146105de578063907e4f36146105fc57600080fd5b8063487ca261146104c85780634b4c9ce5146104ea5780635915d8061461050a5780635a08c2611461052a5780636515aa291461054a5780636669302a1461055f57600080fd5b806323b872dd1161025057806323b872dd146103fe5780632a519ec81461041e5780633049105d1461043e578063313ce5671461045f578063395093511461047b5780633c6216a61461049b57600080fd5b806306fdde0314610298578063095ea7b3146102c35780630dfe1681146102f357806318160ddd1461033f5780631a08b5551461035e5780631f495dda146103c3575b600080fd5b3480156102a457600080fd5b506102ad6109ac565b6040516102ba9190614e77565b60405180910390f35b3480156102cf57600080fd5b506102e36102de366004614a78565b610a3e565b60405190151581526020016102ba565b3480156102ff57600080fd5b506103277f000000000000000000000000000000000000000000000000000000000000000081565b6040516001600160a01b0390911681526020016102ba565b34801561034b57600080fd5b506002545b6040519081526020016102ba565b34801561036a57600080fd5b506008546001600160681b0380821691600160681b810490911690600160d01b900465ffffffffffff165b604080516001600160681b03948516815293909216602084015265ffffffffffff16908201526060016102ba565b3480156103cf57600080fd5b506010546001600160681b0380821691600160681b810490911690600160d01b900465ffffffffffff16610395565b34801561040a57600080fd5b506102e3610419366004614a38565b610a58565b34801561042a57600080fd5b506103506104393660046149e4565b610a7e565b61045161044c366004614aa3565b610b37565b6040516102ba929190614f16565b34801561046b57600080fd5b50604051601281526020016102ba565b34801561048757600080fd5b506102e3610496366004614a78565b610b57565b3480156104a757600080fd5b506104bb6104b6366004614c95565b610b79565b6040516102ba9190614e69565b3480156104d457600080fd5b506104e86104e3366004614c20565b610e2d565b005b3480156104f657600080fd5b506103506105053660046149e4565b610f4a565b34801561051657600080fd5b506104bb610525366004614c50565b610fc0565b34801561053657600080fd5b506104e8610545366004614c20565b610fd3565b34801561055657600080fd5b506103506110fa565b34801561056b57600080fd5b506104e8611148565b34801561058057600080fd5b5061035061058f3660046149e4565b611187565b3480156105a057600080fd5b506104e86111a2565b3480156105b557600080fd5b506103506111d6565b3480156105ca57600080fd5b506104e86105d9366004614a78565b61121f565b3480156105ea57600080fd5b506005546001600160a01b0316610327565b34801561060857600080fd5b50600754610327906001600160a01b031681565b34801561062857600080fd5b506104e861145c565b34801561063d57600080fd5b5061035061064c3660046149e4565b611499565b34801561065d57600080fd5b506102ad61150f565b34801561067257600080fd5b506103506106813660046149e4565b61151e565b610451610694366004614ad7565b6115d7565b3480156106a557600080fd5b506102e36106b4366004614a78565b611e8b565b3480156106c557600080fd5b506102e36106d4366004614a78565b611f11565b3480156106e557600080fd5b506106ee611f1f565b6040516102ba9190614e1c565b34801561070757600080fd5b506107416107163660046149e4565b6016602052600090815260409020546001600160d81b03811690600160d81b900464ffffffffff1682565b604080516001600160d81b03909316835264ffffffffff9091166020830152016102ba565b34801561077257600080fd5b506107a76107813660046149e4565b6014602052600090815260409020546001600160801b0380821691600160801b90041682565b604080516001600160801b039384168152929091166020830152016102ba565b3480156107d357600080fd5b506103506107e23660046149e4565b612006565b3480156107f357600080fd5b50610350610802366004614b3f565b6120bf565b34801561081357600080fd5b506104e8610822366004614c20565b6120f6565b34801561083357600080fd5b50610350612268565b34801561084857600080fd5b506103277f000000000000000000000000000000000000000000000000000000000000000081565b34801561087c57600080fd5b506104e861088b3660046149e4565b6122b1565b61035061089e366004614b53565b6123ef565b3480156108af57600080fd5b506103506108be366004614a00565b612409565b6103506108d1366004614bb1565b612434565b3480156108e257600080fd5b506103276108f1366004614c20565b6127aa565b34801561090257600080fd5b506107416109113660046149e4565b6015602052600090815260409020546001600160d81b03811690600160d81b900464ffffffffff1682565b34801561094857600080fd5b506104e86109573660046149e4565b612850565b34801561096857600080fd5b50600c546001600160681b0380821691600160681b810490911690600160d01b900465ffffffffffff16610395565b3480156109a357600080fd5b506104e86128e8565b6060600380546109bb90615014565b80601f01602080910402602001604051908101604052809291908181526020018280546109e790615014565b8015610a345780601f10610a0957610100808354040283529160200191610a34565b820191906000526020600020905b815481529060010190602001808311610a1757829003601f168201915b5050505050905090565b600033610a4c81858561297e565b60019150505b92915050565b600033610a66858285612aa3565b610a71858585612b1d565b60019150505b9392505050565b6000610a52600760009054906101000a90046001600160a01b03166001600160a01b0316639386e8b26040518163ffffffff1660e01b815260040160206040518083038186803b158015610ad157600080fd5b505afa158015610ae5573d6000803e3d6000fd5b505050506040513d601f19601f82011682018060405250810190610b099190614c38565b6001600160a01b03841660009081526013602090815260409182902082519182019092529054815290612cf6565b6000610b416148b3565b610b4c8484336115d7565b915091509250929050565b600033610a4c818585610b6a8383612409565b610b749190614f55565b61297e565b610b816148b3565b60026006541415610bad5760405162461bcd60e51b8152600401610ba490614edf565b60405180910390fd5b6002600655604080518082019091526001600160a01b037f0000000000000000000000000000000000000000000000000000000000000000811682527f00000000000000000000000000000000000000000000000000000000000000001660208201526000610c1b60025490565b90506000610c276111d6565b9050610c333388612d1b565b60005b6002811015610dca576000848260028110610c6157634e487b7160e01b600052603260045260246000fd5b602002015190506000610c7d6001600160a01b03831630612e72565b90506000610c9586610c8f848e612f0c565b90612f18565b9050610cab6001600160a01b0384168a83612f24565b80888560028110610ccc57634e487b7160e01b600052603260045260246000fd5b6020020152895184101580610d085750898481518110610cfc57634e487b7160e01b600052603260045260246000fd5b60200260200101518110155b610d545760405162461bcd60e51b815260206004820152601f60248201527f535741505f57495448445241575f524553554c545f4e4f545f454e4f554748006044820152606401610ba4565b610d848583610d63898f612f82565b6001600160a01b03871660009081526016602052604090209291908a612f8e565b610db48583610d93898f612f82565b6001600160a01b03871660009081526015602052604090209291908a612f8e565b5050508080610dc290615049565b915050610c36565b508351602080860151604080518b8152928301939093528183015290516001600160a01b0387169133917f3cae9923fd3c2f468aa25a8ef687923e37f957459557c0380fd06526c0b8cdbc9181900360600190a350506001600655509392505050565b662386f26fc10000811115610e785760405162461bcd60e51b815260206004820152601160248201527008e9eacbe8c8a8abeac9ea88abe90928e9607b1b6044820152606401610ba4565b336000818152600b6020908152604091829020825191820190925290548152610f479190610ea584612feb565b610eae33611187565b600254600760009054906101000a90046001600160a01b03166001600160a01b03166321bacf286040518163ffffffff1660e01b815260040160206040518083038186803b158015610eff57600080fd5b505afa158015610f13573d6000803e3d6000fd5b505050506040513d601f19601f82011682018060405250810190610f379190614c38565b600895949392919061301a61306e565b50565b600080610f606001600160a01b03841630612e72565b9050610a77610fba610f706111d6565b6001600160a01b0386166000908152601560209081526040918290208251808401909352546001600160d81b0381168352600160d81b900464ffffffffff16908201529084613089565b826130e4565b610fc86148b3565b610a77838333610b79565b670de0b6b3a764000081111561102b5760405162461bcd60e51b815260206004820152601a60248201527f474f565f534c4950504147455f4645455f564f54455f484947480000000000006044820152606401610ba4565b336000818152600f6020908152604091829020825191820190925290548152610f47919061105884612feb565b61106133611187565b600254600760009054906101000a90046001600160a01b03166001600160a01b031663b975d0bb6040518163ffffffff1660e01b815260040160206040518083038186803b1580156110b257600080fd5b505afa1580156110c6573d6000803e3d6000fd5b505050506040513d601f19601f820116820180604052508101906110ea9190614c38565b600c9594939291906130fb61306e565b60408051606081018252600c546001600160681b038082168352600160681b8204166020830152600160d01b900465ffffffffffff169181019190915260009061114390613145565b905090565b336000818152600f602090815260408083208151808401835290548152815180840183528490528151928301909152918152611185929190611058565b565b6001600160a01b031660009081526020819052604090205490565b6005546001600160a01b031633146111cc5760405162461bcd60e51b8152600401610ba490614eaa565b61118560006131c0565b604080516060810182526010546001600160681b038082168352600160681b8204166020830152600160d01b900465ffffffffffff169181019190915260009061114390613145565b600260065414156112425760405162461bcd60e51b8152600401610ba490614edf565b60026006556005546001600160a01b031633146112715760405162461bcd60e51b8152600401610ba490614eaa565b60006112a66001600160a01b037f00000000000000000000000000000000000000000000000000000000000000001630612e72565b905060006112dd6001600160a01b037f00000000000000000000000000000000000000000000000000000000000000001630612e72565b90506112f36001600160a01b0385163385612f24565b816113276001600160a01b037f00000000000000000000000000000000000000000000000000000000000000001630612e72565b10156113755760405162461bcd60e51b815260206004820152601860248201527f535741505f5245534355455f44454e4945445f42414c5f3000000000000000006044820152606401610ba4565b806113a96001600160a01b037f00000000000000000000000000000000000000000000000000000000000000001630612e72565b10156113f75760405162461bcd60e51b815260206004820152601860248201527f535741505f5245534355455f44454e4945445f42414c5f3100000000000000006044820152606401610ba4565b6103e861140330611187565b10156114515760405162461bcd60e51b815260206004820152601e60248201527f535741505f5245534355455f44454e4945445f424153455f535550504c5900006044820152606401610ba4565b505060016006555050565b336000818152600b602090815260408083208151808401835290548152815180840183528490528151928301909152918152611185929190610ea5565b6000806114af6001600160a01b03841630612e72565b9050610a776115096114bf6111d6565b6001600160a01b0386166000908152601660209081526040918290208251808401909352546001600160d81b0381168352600160d81b900464ffffffffff16908201529084613089565b82613212565b6060600480546109bb90615014565b6000610a52600760009054906101000a90046001600160a01b03166001600160a01b031663b975d0bb6040518163ffffffff1660e01b815260040160206040518083038186803b15801561157157600080fd5b505afa158015611585573d6000803e3d6000fd5b505050506040513d601f19601f820116820180604052508101906115a99190614c38565b6001600160a01b0384166000908152600f602090815260409182902082519182019092529054815290612cf6565b60006115e16148b3565b600260065414156116045760405162461bcd60e51b8152600401610ba490614edf565b6002600655604080518082019091526001600160a01b037f0000000000000000000000000000000000000000000000000000000000000000811682527f00000000000000000000000000000000000000000000000000000000000000001660208201526116808160005b60200201516001600160a01b03161590565b6116a45761168f81600161166e565b61169a5760006116a7565b60208601516116a7565b85515b34146116f55760405162461bcd60e51b815260206004820152601c60248201527f535741505f4445504f5349545f57524f4e475f4d53475f56414c5545000000006044820152606401610ba4565b600061170060025490565b90508061192c576117146103e86063612f0c565b9350611722306103e8613221565b60005b60028110156119265761175c8589836002811061175257634e487b7160e01b600052603260045260246000fd5b60200201516130e4565b9450600088826002811061178057634e487b7160e01b600052603260045260246000fd5b6020020151116117d25760405162461bcd60e51b815260206004820152601d60248201527f535741505f4445504f5349545f414d4f554e545f49535f5a45524f5f300000006044820152606401610ba4565b8681600281106117f257634e487b7160e01b600052603260045260246000fd5b602002015188826002811061181757634e487b7160e01b600052603260045260246000fd5b6020020151101561186a5760405162461bcd60e51b815260206004820152601d60248201527f535741505f4445504f5349545f4d494e5f414d4f554e545f4c4f575f300000006044820152606401610ba4565b6118ca33308a846002811061188f57634e487b7160e01b600052603260045260246000fd5b60200201518685600281106118b457634e487b7160e01b600052603260045260246000fd5b60200201516001600160a01b031692919061330c565b8781600281106118ea57634e487b7160e01b600052603260045260246000fd5b602002015184826002811061190f57634e487b7160e01b600052603260045260246000fd5b60200201528061191e81615049565b915050611725565b50611dcd565b6119346148b3565b60005b60028110156119e8576119b161196685836002811061166e57634e487b7160e01b600052603260045260246000fd5b611971576000611973565b345b6119ab3087856002811061199757634e487b7160e01b600052603260045260246000fd5b60200201516001600160a01b031690612e72565b90613483565b8282600281106119d157634e487b7160e01b600052603260045260246000fd5b6020020152806119e081615049565b915050611937565b50600019945060005b6002811015611a6e57611a5a86611a55848460028110611a2157634e487b7160e01b600052603260045260246000fd5b6020020151610c8f8d8660028110611a4957634e487b7160e01b600052603260045260246000fd5b60200201518890612f0c565b613212565b955080611a6681615049565b9150506119f1565b508460005b6002811015611cb75760008a8260028110611a9e57634e487b7160e01b600052603260045260246000fd5b602002015111611af05760405162461bcd60e51b815260206004820152601d60248201527f535741505f4445504f5349545f414d4f554e545f49535f5a45524f5f310000006044820152606401610ba4565b6000611b3985610c8f611b04600183614fd1565b611b3387898860028110611b2857634e487b7160e01b600052603260045260246000fd5b602002015190612f0c565b90612f82565b9050898260028110611b5b57634e487b7160e01b600052603260045260246000fd5b6020020151811015611baf5760405162461bcd60e51b815260206004820152601d60248201527f535741505f4445504f5349545f4d494e5f414d4f554e545f4c4f575f310000006044820152606401610ba4565b611bd53330838986600281106118b457634e487b7160e01b600052603260045260246000fd5b611c21848360028110611bf857634e487b7160e01b600052603260045260246000fd5b60200201516119ab3089866002811061199757634e487b7160e01b600052603260045260246000fd5b878360028110611c4157634e487b7160e01b600052603260045260246000fd5b6020020152611ca188611a55868560028110611c6d57634e487b7160e01b600052603260045260246000fd5b6020020151610c8f8b8760028110611c9557634e487b7160e01b600052603260045260246000fd5b60200201518a90612f0c565b9750508080611caf90615049565b915050611a73565b506000611cc26111d6565b905060005b6002811015611dc857611d5e82858360028110611cf457634e487b7160e01b600052603260045260246000fd5b6020020151611d03888c612f82565b88601660008c8860028110611d2857634e487b7160e01b600052603260045260246000fd5b60200201516001600160a01b03166001600160a01b03168152602001908152602001600020612f8e90949392919063ffffffff16565b611db682858360028110611d8257634e487b7160e01b600052603260045260246000fd5b6020020151611d91888c612f82565b88601560008c8860028110611d2857634e487b7160e01b600052603260045260246000fd5b80611dc081615049565b915050611cc7565b505050505b60008411611e1d5760405162461bcd60e51b815260206004820152601e60248201527f535741505f4445504f5349545f524553554c545f4e4f545f454e4f55474800006044820152606401610ba4565b611e278585613221565b825160208085015160408051888152928301939093528183015290516001600160a01b0387169133917f8bab6aed5a508937051a144e61d6e61336834a66aaee250a00613ae6f744c4229181900360600190a3505060016006559094909350915050565b60003381611e998286612409565b905083811015611ef95760405162461bcd60e51b815260206004820152602560248201527f45524332303a2064656372656173656420616c6c6f77616e63652062656c6f77604482015264207a65726f60d81b6064820152608401610ba4565b611f06828686840361297e565b506001949350505050565b600033610a4c818585612b1d565b60408051600280825260608083018452926020830190803683370190505090507f000000000000000000000000000000000000000000000000000000000000000081600081518110611f8157634e487b7160e01b600052603260045260246000fd5b60200260200101906001600160a01b031690816001600160a01b0316815250507f000000000000000000000000000000000000000000000000000000000000000081600181518110611fe357634e487b7160e01b600052603260045260246000fd5b60200260200101906001600160a01b031690816001600160a01b03168152505090565b6000610a52600760009054906101000a90046001600160a01b03166001600160a01b03166321bacf286040518163ffffffff1660e01b815260040160206040518083038186803b15801561205957600080fd5b505afa15801561206d573d6000803e3d6000fd5b505050506040513d601f19601f820116820180604052508101906120919190614c38565b6001600160a01b0384166000908152600b602090815260409182902082519182019092529054815290612cf6565b60006120ee8484846120d088610f4a565b6120d988611499565b6120e1612268565b6120e96110fa565b61348f565b949350505050565b61012c8111156121485760405162461bcd60e51b815260206004820152601a60248201527f474f565f44454341595f504552494f445f564f54455f484947480000000000006044820152606401610ba4565b603c8110156121995760405162461bcd60e51b815260206004820152601960248201527f474f565f44454341595f504552494f445f564f54455f4c4f57000000000000006044820152606401610ba4565b33600081815260136020908152604091829020825191820190925290548152610f4791906121c684612feb565b6121cf33611187565b600254600760009054906101000a90046001600160a01b03166001600160a01b0316639386e8b26040518163ffffffff1660e01b815260040160206040518083038186803b15801561222057600080fd5b505afa158015612234573d6000803e3d6000fd5b505050506040513d601f19601f820116820180604052508101906122589190614c38565b60109594939291906135d861306e565b604080516060810182526008546001600160681b038082168352600160681b8204166020830152600160d01b900465ffffffffffff169181019190915260009061114390613145565b6005546001600160a01b031633146122db5760405162461bcd60e51b8152600401610ba490614eaa565b600780546001600160a01b0319166001600160a01b038316179055604080516393028d8360e01b8152905130916393028d8391600480830192600092919082900301818387803b15801561232e57600080fd5b505af1158015612342573d6000803e3d6000fd5b50505050306001600160a01b0316636669302a6040518163ffffffff1660e01b8152600401600060405180830381600087803b15801561238157600080fd5b505af1158015612395573d6000803e3d6000fd5b50505050306001600160a01b031663f76d13b46040518163ffffffff1660e01b8152600401600060405180830381600087803b1580156123d457600080fd5b505af11580156123e8573d6000803e3d6000fd5b5050505050565b60006123ff868686868633612434565b9695505050505050565b6001600160a01b03918216600090815260016020908152604080832093909416825291909152205490565b6000600260065414156124595760405162461bcd60e51b8152600401610ba490614edf565b6002600655600754604080516308bcf8b560e21b815290516001600160a01b03909216916322f3e2d491600480820192602092909190829003018186803b1580156124a357600080fd5b505afa1580156124b7573d6000803e3d6000fd5b505050506040513d601f19601f820116820180604052508101906124db9190614b1f565b61251f5760405162461bcd60e51b815260206004820152601560248201527429aba0a82fa320a1aa27a92cafa9a42aaa2227aba760591b6044820152606401610ba4565b6001600160a01b03871615612535576000612537565b845b341461257c5760405162461bcd60e51b8152602060048201526014602482015273535741505f57524f4e475f4d53475f56414c554560601b6044820152606401610ba4565b600060405180604001604052806125c66125a68b6001600160a01b03166001600160a01b03161590565b6125b15760006125b3565b345b6119ab6001600160a01b038d1630612e72565b81526020016125de6001600160a01b038a1630612e72565b81525090506000612602604051806040016040528060008152602001600081525090565b60006040518060400160405280612617612268565b81526020016126246110fa565b905290506126378b8b8b8b8a8987613622565b8094508197508295505050508a6001600160a01b0316866001600160a01b0316336001600160a01b03167fbd99c6719f088aa0abd9e7b7a4a635d1f931601e9f304b538dc42be25d8c65c68d878a886000015189602001518f6040516126d5969594939291906001600160a01b039687168152602081019590955260408501939093526060840191909152608083015290911660a082015260c00190565b60405180910390a46126ea83868987856138ae565b6001600160a01b038b166000908152601460205260408120805485929061271b9084906001600160801b0316614f2a565b82546101009290920a6001600160801b038181021990931691831602179091556001600160a01b038d16600090815260146020526040902080548893509091601091612770918591600160801b900416614f2a565b92506101000a8154816001600160801b0302191690836001600160801b031602179055505050505060016006819055509695505050505050565b6000816127d857507f0000000000000000000000000000000000000000000000000000000000000000919050565b816001141561280857507f0000000000000000000000000000000000000000000000000000000000000000919050565b60405162461bcd60e51b815260206004820152601960248201527f535741505f484156455f4f4e4c595f54574f5f544f4b454e53000000000000006044820152606401610ba4565b6005546001600160a01b0316331461287a5760405162461bcd60e51b8152600401610ba490614eaa565b6001600160a01b0381166128df5760405162461bcd60e51b815260206004820152602660248201527f4f776e61626c653a206e6577206f776e657220697320746865207a65726f206160448201526564647265737360d01b6064820152608401610ba4565b610f47816131c0565b33600081815260136020908152604080832081518084018352905481528151808401835284905281519283019091529181526111859291906121c6565b6000600160681b821061297a5760405162461bcd60e51b815260206004820152601e60248201527f76616c756520646f6573206e6f742066697420696e20313034206269747300006044820152606401610ba4565b5090565b6001600160a01b0383166129e05760405162461bcd60e51b8152602060048201526024808201527f45524332303a20617070726f76652066726f6d20746865207a65726f206164646044820152637265737360e01b6064820152608401610ba4565b6001600160a01b038216612a415760405162461bcd60e51b815260206004820152602260248201527f45524332303a20617070726f766520746f20746865207a65726f206164647265604482015261737360f01b6064820152608401610ba4565b6001600160a01b0383811660008181526001602090815260408083209487168084529482529182902085905590518481527f8c5be1e5ebec7d5bd14f71427d1e84f3dd0314c0f7b2291e5b200ac8c7c3b92591015b60405180910390a3505050565b6000612aaf8484612409565b90506000198114612b175781811015612b0a5760405162461bcd60e51b815260206004820152601d60248201527f45524332303a20696e73756666696369656e7420616c6c6f77616e63650000006044820152606401610ba4565b612b17848484840361297e565b50505050565b6001600160a01b038316612b815760405162461bcd60e51b815260206004820152602560248201527f45524332303a207472616e736665722066726f6d20746865207a65726f206164604482015264647265737360d81b6064820152608401610ba4565b6001600160a01b038216612be35760405162461bcd60e51b815260206004820152602360248201527f45524332303a207472616e7366657220746f20746865207a65726f206164647260448201526265737360e81b6064820152608401610ba4565b612bee838383613d99565b6001600160a01b03831660009081526020819052604090205481811015612c665760405162461bcd60e51b815260206004820152602660248201527f45524332303a207472616e7366657220616d6f756e7420657863656564732062604482015265616c616e636560d01b6064820152608401610ba4565b6001600160a01b03808516600090815260208190526040808220858503905591851681529081208054849290612c9d908490614f55565b92505081905550826001600160a01b0316846001600160a01b03167fddf252ad1be2c89b69c2b068fc378daa952ba7f163c4a11628f55a4df523b3ef84604051612ce991815260200190565b60405180910390a3612b17565b815160009015612d15578251612d0e90600190614fd1565b9050610a52565b50919050565b6001600160a01b038216612d7b5760405162461bcd60e51b815260206004820152602160248201527f45524332303a206275726e2066726f6d20746865207a65726f206164647265736044820152607360f81b6064820152608401610ba4565b612d8782600083613d99565b6001600160a01b03821660009081526020819052604090205481811015612dfb5760405162461bcd60e51b815260206004820152602260248201527f45524332303a206275726e20616d6f756e7420657863656564732062616c616e604482015261636560f01b6064820152608401610ba4565b6001600160a01b0383166000908152602081905260408120838303905560028054849290612e2a908490614fd1565b90915550506040518281526000906001600160a01b038516907fddf252ad1be2c89b69c2b068fc378daa952ba7f163c4a11628f55a4df523b3ef90602001612a96565b505050565b60006001600160a01b038316612e9357506001600160a01b03811631610a52565b6040516370a0823160e01b81526001600160a01b0383811660048301528416906370a082319060240160206040518083038186803b158015612ed457600080fd5b505afa158015612ee8573d6000803e3d6000fd5b505050506040513d601f19601f82011682018060405250810190612d0e9190614c38565b6000610a778284614fb2565b6000610a778284614f92565b8015612e6d576001600160a01b038316612f6e576040516001600160a01b0383169082156108fc029083906000818181858888f19350505050158015612b17573d6000803e3d6000fd5b612e6d6001600160a01b0384168383614089565b6000610a778284614f55565b6123e885612fe683610c8f612fa4826001613483565b604080518082019091528b546001600160d81b0381168252600160d81b900464ffffffffff166020820152611b33908990612fe0908d8d613089565b90612f0c565b6140ec565b60408051602081019091526000815260405180602001604052808360016130129190614f55565b905292915050565b6040805184815283151560208201529081018290526001600160a01b038516907fc00d9debcc1737a88e76a969557b14246f013c43c1328eab2cbac00c1714d0ca906060015b60405180910390a250505050565b61307f88888888888989898961412a565b5050505050505050565b6000806130ae84611a55876020015164ffffffffff164261348390919063ffffffff16565b905060006130bc8583613483565b90506123ff85610c8f6130cf8786612f0c565b8951611b33906001600160d81b031686612f0c565b6000818310156130f45781610a77565b5090919050565b6040805184815283151560208201529081018290526001600160a01b038516907f4ad9a834867d5460d12562e53fb43cfa76081110dbc58da81b8aeded6813639f90606001613060565b60008061316e62015180611a55856040015165ffffffffffff164261348390919063ffffffff16565b9050600061317f6201518083613483565b90506120ee62015180610c8f6131ab8588602001516001600160681b0316612f0c90919063ffffffff16565b8751611b33906001600160681b031686612f0c565b600580546001600160a01b038381166001600160a01b0319831681179093556040519116919082907f8be0079c531659141344cd1fd0a4f28419497f9722a3daafe3b4186f6b6457e090600090a35050565b60008183106130f45781610a77565b6001600160a01b0382166132775760405162461bcd60e51b815260206004820152601f60248201527f45524332303a206d696e7420746f20746865207a65726f2061646472657373006044820152606401610ba4565b61328360008383613d99565b80600260008282546132959190614f55565b90915550506001600160a01b038216600090815260208190526040812080548392906132c2908490614f55565b90915550506040518181526001600160a01b038316906000907fddf252ad1be2c89b69c2b068fc378daa952ba7f163c4a11628f55a4df523b3ef9060200160405180910390a35050565b8015612b17576001600160a01b03841661346e57803410156133705760405162461bcd60e51b815260206004820152601c60248201527f455243323048656c7065725f56414c55455f4e4f545f454e4f554748000000006044820152606401610ba4565b6001600160a01b03831633146133c85760405162461bcd60e51b815260206004820152601b60248201527f455243323048656c7065725f46524f4d5f4e4f545f53454e44455200000000006044820152606401610ba4565b6001600160a01b03821630146134205760405162461bcd60e51b815260206004820152601760248201527f455243323048656c7065725f544f5f4e4f545f544849530000000000000000006044820152606401610ba4565b80341115613469576001600160a01b0383166108fc61343f3484613483565b6040518115909202916000818181858888f19350505050158015613467573d6000803e3d6000fd5b505b612b17565b612b176001600160a01b038516848484614369565b6000610a778284614fd1565b6000866001600160a01b0316886001600160a01b031611156134af579596955b6000861180156134f057507f00000000000000000000000000000000000000000000000000000000000000006001600160a01b0316886001600160a01b0316145b801561352d57507f00000000000000000000000000000000000000000000000000000000000000006001600160a01b0316876001600160a01b0316145b156135c957600061355461354d670de0b6b3a7640000610c8f8a88612f0c565b8890613483565b905060006135628783612f82565b9050600061357482610c8f858a612f0c565b905060006135976135858786612f0c565b6119ab670de0b6b3a764000086612f0c565b905060006135ad670de0b6b3a764000085612f0c565b90506135bd81610c8f8585612f0c565b955050505050506135cd565b5060005b979650505050505050565b6040805184815283151560208201529081018290526001600160a01b038516907fdb1350180a01d00beab06bdea8ddb5c0cacdce847a28cfaaeabf9075c26d5aa090606001613060565b600080613642604051806040016040528060008152602001600081525090565b600061364c6111d6565b86516001600160a01b038d166000908152601560209081526040918290208251808401909352546001600160d81b0381168352600160d81b900464ffffffffff16908201529192506136a091908390613089565b80835286516136af91906130e4565b82526020868101516001600160a01b038c166000908152601683526040908190208151808301909252546001600160d81b0381168252600160d81b900464ffffffffff169281019290925261370691908390613089565b602080840182905287015161371b9190613212565b60208301526137356001600160a01b038c1633308c61330c565b855161374e906119ab6001600160a01b038e1630612e72565b935061376f8b8b86856000015186602001518a600001518b6020015161348f565b92506000831180156137815750878310155b6137c65760405162461bcd60e51b81526020600482015260166024820152750a6ae82a0bea48aa6aa98a8be9c9ea8be8a9c9eaa8e960531b6044820152606401610ba4565b6137da6001600160a01b038b168885612f24565b8551825114613811578151613811906137f39086612f82565b6001600160a01b038d166000908152601560205260409020906140ec565b8560200151826020015114613851576020820151613851906138339085613483565b6001600160a01b038c166000908152601660205260409020906140ec565b85516001600160a01b038c1660009081526016602052604090206138769183906143a1565b6020808701516001600160a01b038c166000908152601590925260409091206138a09183906143a1565b509750975097945050505050565b600080600080600760009054906101000a90046001600160a01b03166001600160a01b03166323a65ab66040518163ffffffff1660e01b815260040160806040518083038186803b15801561390257600080fd5b505afa158015613916573d6000803e3d6000fd5b505050506040513d601f19601f8201168201806040525081019061393a9190614ce3565b935093509350935060008060006ec097ce7bc90715b34b9f100000000090506139828960000151610c8f61397b8f8d60000151612f8290919063ffffffff16565b8490612f0c565b60208a015190915061399b90610c8f61397b828f613483565b90506ec097ce7bc90715b34b9f1000000000811115613d2d576139bd816143dd565b905060006139e282610c8f6139da82670de0b6b3a7640000613483565b600254612fe0565b90506001600160a01b038b166139f9576000613a0f565b613a0f670de0b6b3a7640000610c8f838b612f0c565b93506001600160a01b038616613a26576000613a3c565b613a3c670de0b6b3a7640000610c8f838a612f0c565b92506001600160a01b038516613a71578315613a5c57613a5c8b85613221565b8215613a6c57613a6c8684613221565b613d2b565b6000841180613a805750600083115b15613d2b576000808411613a95576000613a98565b60015b60008611613aa7576000613aaa565b60015b613ab49190614f6d565b60ff16905060008167ffffffffffffffff811115613ae257634e487b7160e01b600052604160045260246000fd5b604051908082528060200260200182016040528015613b0b578160200160208202803683370190505b50905060008267ffffffffffffffff811115613b3757634e487b7160e01b600052604160045260246000fd5b604051908082528060200260200182016040528015613b60578160200160208202803683370190505b5090508d82600081518110613b8557634e487b7160e01b600052603260045260246000fd5b60200260200101906001600160a01b031690816001600160a01b0316815250508681600081518110613bc757634e487b7160e01b600052603260045260246000fd5b60209081029190910101528515613c53578882613be5600186614fd1565b81518110613c0357634e487b7160e01b600052603260045260246000fd5b6001600160a01b03909216602092830291909101909101528581613c28600186614fd1565b81518110613c4657634e487b7160e01b600052603260045260246000fd5b6020026020010181815250505b60405163024c5d4f60e21b81526001600160a01b03891690630931753c90613c819085908590600401614d99565b600060405180830381600087803b158015613c9b57600080fd5b505af1925050508015613cac575060015b613d14577f08c379a0afcc32b1a39302f7cb8073359698411ab5fd6e3edb2c02c0b5fba8aa604051613d0790602080825260159082015274155c19185d194814995dd85c991cc811985a5b1959605a1b604082015260600190565b60405180910390a1613d27565b613d2788613d228989612f82565b613221565b5050505b505b88516020808b01518a518b83015160408051958652938501929092528383015260608301526080820185905260a08201849052517f2a368c7f33bb86e2d999940a3989d849031aff29b750f67947e6b8e8c3d2ffd69181900360c00190a1505050505050505050505050565b816001600160a01b0316836001600160a01b03161415613db857505050565b6007546001600160a01b039081169060009085161580613e4c5750604051633b90b9bf60e01b81526001600160a01b038681166004830152831690633b90b9bf9060240160206040518083038186803b158015613e1457600080fd5b505afa158015613e28573d6000803e3d6000fd5b505050506040513d601f19601f82011682018060405250810190613e4c9190614b1f565b15905060006001600160a01b0385161580613edb5750604051633b90b9bf60e01b81526001600160a01b038681166004830152841690633b90b9bf9060240160206040518083038186803b158015613ea357600080fd5b505afa158015613eb7573d6000803e3d6000fd5b505050506040513d601f19601f82011682018060405250810190613edb9190614b1f565b15905081158015613eea575080155b15613ef757505050505050565b60006001600160a01b038716613f0e576000613f17565b613f1787611187565b905060006001600160a01b038716613f30576000613f39565b613f3987611187565b90506000613f7b6001600160a01b03891615613f56576000613f58565b875b6119ab6001600160a01b038c1615613f71576000613f73565b895b600254611b33565b905060006040518061010001604052808b6001600160a01b031681526020018a6001600160a01b03168152602001871515815260200186151581526020018981526020018581526020018481526020018381525090506000806000896001600160a01b031663edb7a6fa6040518163ffffffff1660e01b815260040160606040518083038186803b15801561400f57600080fd5b505afa158015614023573d6000803e3d6000fd5b505050506040513d601f19601f820116820180604052508101906140479190614d2d565b92509250925061405c848461301a6008614454565b61406b84836130fb600c614454565b61407a84826135d86010614454565b50505050505050505050505050565b6040516001600160a01b038316602482015260448101829052612e6d90849063a9059cbb60e01b906064015b60408051601f198184030181529190526020810180516001600160e01b03166001600160e01b0319909316929092179091526145a1565b6140f581614673565b6140fe426146c8565b6001600160d81b039190911664ffffffffff909116600160d81b026001600160d81b0319161790915550565b600189015460028a01548190806141408b511590565b156141565761414f818a613483565b9050614177565b61417461416d6141668d89612cf6565b8b90612f0c565b8490613483565b92505b895161418e576141878189612f82565b90506141af565b6141ac6141a561419e8c89612cf6565b8a90612f0c565b8490612f82565b92505b8383146141be5760018d018390555b8181146141cd5760028d018190555b600087156141f2576141ed88610c8f6141e6858b612f0c565b8790612f82565b6141f4565b865b905060008e6000016040518060600160405290816000820160009054906101000a90046001600160681b03166001600160681b03166001600160681b0316815260200160008201600d9054906101000a90046001600160681b03166001600160681b03166001600160681b0316815260200160008201601a9054906101000a900465ffffffffffff1665ffffffffffff1665ffffffffffff1681525050905080602001516001600160681b03168214614324578e6142b96142b483613145565b612925565b6142c284612925565b6142cb4261471f565b83546001600160681b039384166cffffffffffffffffffffffffff19938516600160681b026cffffffffffffffffffffffffff60681b1965ffffffffffff909416600160d01b0293909316949091169390931717161790555b50508a518a511461434e576001600160a01b038c16600090815260038e01602052604090208a5190555b61407a8c61435c8c89612cf6565b8c51158b8963ffffffff16565b6040516001600160a01b0380851660248301528316604482015260648101829052612b179085906323b872dd60e01b906084016140b5565b6040805180820190915283546001600160d81b0381168252600160d81b900464ffffffffff166020820152612e6d908490612fe6908585613089565b6000600382111561443e578160006143f6600283614f92565b614401906001614f55565b90505b818110156144375790508060028161441c8187614f92565b6144269190614f55565b6144309190614f92565b9050614404565b5092915050565b811561444c57506001919050565b506000919050565b83516001600160a01b03908116600090815260038301602081815260408084208151808401835290548152828a0151909516845291815291819020815192830190915254815281511580156144a857508051155b80156144b5575085604001515b80156144c2575085606001515b156145345785516144fd906144d78488612cf6565b60016144f48a608001518b60a0015161348390919063ffffffff16565b8863ffffffff16565b602086015161452d906145108388612cf6565b60016144f48a608001518b60c00151612f8290919063ffffffff16565b5050612b17565b85604001511561456e57855160a0870151608088015161456e9291859161455c908290613483565b60e08b01518894939291908b8b614777565b85606001511561459957602086015160c087015160808801516145999291849161455c908290612f82565b505050505050565b60006145f6826040518060400160405280602081526020017f5361666545524332303a206c6f772d6c6576656c2063616c6c206661696c6564815250856001600160a01b03166147af9092919063ffffffff16565b805190915015612e6d57808060200190518101906146149190614b1f565b612e6d5760405162461bcd60e51b815260206004820152602a60248201527f5361666545524332303a204552433230206f7065726174696f6e20646964206e6044820152691bdd081cdd58d8d9595960b21b6064820152608401610ba4565b6000600160d81b821061297a5760405162461bcd60e51b815260206004820152601e60248201527f76616c756520646f6573206e6f742066697420696e20323136206269747300006044820152606401610ba4565b600065010000000000821061297a5760405162461bcd60e51b815260206004820152601d60248201527f76616c756520646f6573206e6f742066697420696e20343020626974730000006044820152606401610ba4565b60006601000000000000821061297a5760405162461bcd60e51b815260206004820152601d60248201527f76616c756520646f6573206e6f742066697420696e20343820626974730000006044820152606401610ba4565b61307f888888871561478957896147a5565b6040805160208082018352600091829052825190810190925281525b898989898961412a565b60606120ee8484600085856001600160a01b0385163b6148115760405162461bcd60e51b815260206004820152601d60248201527f416464726573733a2063616c6c20746f206e6f6e2d636f6e74726163740000006044820152606401610ba4565b600080866001600160a01b0316858760405161482d9190614d7d565b60006040518083038185875af1925050503d806000811461486a576040519150601f19603f3d011682016040523d82523d6000602084013e61486f565b606091505b50915091506135cd82828660608315614889575081610a77565b8251156148995782518084602001fd5b8160405162461bcd60e51b8152600401610ba49190614e77565b60405180604001604052806002906020820280368337509192915050565b600082601f8301126148e1578081fd5b6040516040810181811067ffffffffffffffff821117156149045761490461507a565b806040525080838560408601111561491a578384fd5b835b600281101561493b57813583526020928301929091019060010161491c565b509195945050505050565b600082601f830112614956578081fd5b8135602067ffffffffffffffff808311156149735761497361507a565b8260051b604051601f19603f830116810181811084821117156149985761499861507a565b604052848152838101925086840182880185018910156149b6578687fd5b8692505b858310156149d85780358452928401926001929092019184016149ba565b50979650505050505050565b6000602082840312156149f5578081fd5b8135610a7781615090565b60008060408385031215614a12578081fd5b8235614a1d81615090565b91506020830135614a2d81615090565b809150509250929050565b600080600060608486031215614a4c578081fd5b8335614a5781615090565b92506020840135614a6781615090565b929592945050506040919091013590565b60008060408385031215614a8a578182fd5b8235614a9581615090565b946020939093013593505050565b60008060808385031215614ab5578182fd5b614abf84846148d1565b9150614ace84604085016148d1565b90509250929050565b600080600060a08486031215614aeb578283fd5b614af585856148d1565b9250614b0485604086016148d1565b91506080840135614b1481615090565b809150509250925092565b600060208284031215614b30578081fd5b81518015158114610a77578182fd5b600080600060608486031215614a4c578283fd5b600080600080600060a08688031215614b6a578081fd5b8535614b7581615090565b94506020860135614b8581615090565b935060408601359250606086013591506080860135614ba381615090565b809150509295509295909350565b60008060008060008060c08789031215614bc9578384fd5b8635614bd481615090565b95506020870135614be481615090565b945060408701359350606087013592506080870135614c0281615090565b915060a0870135614c1281615090565b809150509295509295509295565b600060208284031215614c31578081fd5b5035919050565b600060208284031215614c49578081fd5b5051919050565b60008060408385031215614c62578182fd5b82359150602083013567ffffffffffffffff811115614c7f578182fd5b614c8b85828601614946565b9150509250929050565b600080600060608486031215614ca9578081fd5b83359250602084013567ffffffffffffffff811115614cc6578182fd5b614cd286828701614946565b9250506040840135614b1481615090565b60008060008060808587031215614cf8578182fd5b84519350602085015192506040850151614d1181615090565b6060860151909250614d2281615090565b939692955090935050565b600080600060608486031215614d41578081fd5b8351925060208401519150604084015190509250925092565b8060005b6002811015612b17578151845260209384019390910190600101614d5e565b60008251614d8f818460208701614fe8565b9190910192915050565b604080825283519082018190526000906020906060840190828701845b82811015614ddb5781516001600160a01b031684529284019290840190600101614db6565b50505083810382850152845180825285830191830190845b81811015614e0f57835183529284019291840191600101614df3565b5090979650505050505050565b6020808252825182820181905260009190848201906040850190845b81811015614e5d5783516001600160a01b031683529284019291840191600101614e38565b50909695505050505050565b60408101610a528284614d5a565b6020815260008251806020840152614e96816040850160208701614fe8565b601f01601f19169190910160400192915050565b6020808252818101527f4f776e61626c653a2063616c6c6572206973206e6f7420746865206f776e6572604082015260600190565b6020808252601f908201527f5265656e7472616e637947756172643a207265656e7472616e742063616c6c00604082015260600190565b82815260608101610a776020830184614d5a565b60006001600160801b03808316818516808303821115614f4c57614f4c615064565b01949350505050565b60008219821115614f6857614f68615064565b500190565b600060ff821660ff84168060ff03821115614f8a57614f8a615064565b019392505050565b600082614fad57634e487b7160e01b81526012600452602481fd5b500490565b6000816000190483118215151615614fcc57614fcc615064565b500290565b600082821015614fe357614fe3615064565b500390565b60005b83811015615003578181015183820152602001614feb565b83811115612b175750506000910152565b600181811c9082168061502857607f821691505b60208210811415612d1557634e487b7160e01b600052602260045260246000fd5b600060001982141561505d5761505d615064565b5060010190565b634e487b7160e01b600052601160045260246000fd5b634e487b7160e01b600052604160045260246000fd5b6001600160a01b0381168114610f4757600080fdfea26469706673582212209fee560d09fe611caadfc501723115e2a457326498f152e977b7bac3081a323164736f6c63430008040033a264697066735822122047cc9bf896190d33718e6cee088c1cf6136a9dcc97c7676f8ed5875a04e12d7e64736f6c63430008040033",
  "devdoc": {
    "kind": "dev",
    "methods": {},
    "version": 1
  },
  "userdoc": {
    "kind": "user",
    "methods": {},
    "notice": "Helper contract to deploy pools ",
    "version": 1
  },
  "storageLayout": {
    "storage": [],
    "types": null
  }
}